:100000000C9434000C9451000C9451000C94510049
:100010000C9451000C9451000C9451000C9451001C
:100020000C9451000C9451000C9451000C9451000C
:100030000C9451000C9451000C9451000C945100FC
:100040000C9451000C9451000C9451000C945100EC
:100050000C9451000C9451000C9451000C945100DC
:100060000C9451000C94510011241FBECFEFD8E026
:10007000DEBFCDBF11E0A0E0B1E0ECE4F1E002C0F2
:1000800005900D92A031B107D9F711E0A0E1B1E0E0
:1000900001C01D92A035B107E1F70E946D000C94DC
:1000A000A4000C9400008CE284B982E08AB981E556
:1000B0008CBD1092C50083E38093C400E0ECF0E0B7
:1000C00080818D7F808308958091C00087FF03C069
:1000D0008091C600089580E008951F93CF93DF9329
:1000E0000E94530010E00E9464008823F9F08032DF
:1000F000E1F0A12FB0E0A05FBE4FC82FC295CF7036
:10010000D0E0C050DF4F98819C931F5FA12FB0E0DB
:10011000A05FBE4FE82FF0E0EF70F070E050FF4FAF
:1001200080818C931F5F103408F010E02A98E0E182
:10013000F1E081918EBD0DB407FEFDCF81E0E03589
:0C014000F807B9F72A9ACFCFF894FFCF48
:10014C00F0E040E8FC1C0C5E1F070246E3FF4A008F
:00000001FF
